:100000000AC024C023C022C021C020C01FC01EC0FF
:1000100036C01CC01BC011271FBFCFE5D0E0DEBF1C
:10002000CDBF20E0A0E4B0E0E6E3F2E402C031910D
:100030003D93A234B207D9F720E0A2E4B0E001C0BA
:100040001D93A734B207E1F7ABD0F3C0D9CFF89432
:10005000A895813019F440E250E009C0833019F4CA
:100060004DE750E004C0863021F448EE53E051A93A
:1000700040A948ED4CBF806481BF789408951F93D8
:100080000F930FB70F9310E04F935F936F937F938E
:100090008F939F93AF93BF93EF93FF93CF93DF9390
:1000A0001F93CDB7DEB7E8B5F9B519BD18BD80A16E
:1000B00091A164EF71E095D068EE73E0A4D0109A3E
:1000C000CF5FDF4F1883C150D040CF5FDF4F4881F3
:1000D000C150D040403568F40000CF5FDF4F488109
:1000E000C150D0404F5FCF5FDF4F4883C150D040F9
:1000F000ECCF109845A156A14130510789F020F06E
:100100004230510751F13AC0EF2B11F414A936C017
:1001100044A14F5F44A944A14A3080F114A928C0EA
:10012000E117F10731F414A981E091DF16A915A9AF
:1001300025C06E177F0778F443A14F5F43A943A101
:100140004A30E0F013A986E082DF119A42E050E0E5
:1001500056A945A913C013A911C0E617F70768F4FB
:1001600042A14F5F42A942A1463040F012A9119826
:1001700083E06DDF41E050E0EBCF12A90F91DF91FA
:10018000CF91FF91EF91BF91AF919F918F917F910F
:100190006F915F914F910F910FBF0F911F91189524
:1001A000F89448ED4CBF42E046BFFF9AEF9845BF38
:1001B00041B1436041B942B14C7F42B91EBD4FE0ED
:1001C0004DBD19BD18BD81E042DF78944AB7417F2B
:1001D0004ABF4AB741604ABF88954AB74E7F4ABF77
:1001E000F5CF0027552704C0080F591F880F991F06
:1001F0008050904029F076956795B0F37107B1F77C
:10020000802F952F0895AA1BBB1B51E107C0AA1F81
:10021000BB1FA617B70710F0A61BB70B881F991FA7
:100220005A95A9F780959095682F792F8A2F9B2F43
:060230000895F894FFCFD1
:020236002000A6
:00000001FF
