:100000001DC02CC02BC02AC029C028C027C026C0B4
:1000100025C024C023C022C08FC020C01FC0000044
:100020000000370000000000380002020202020255
:1000300001020408102001030000040011241FBE67
:10004000CFE5D2E0DEBFCDBF20E0A0E6B0E001C04A
:100050001D92A536B207E1F779D025C1D1CF90E046
:10006000FC01EA5CFF4F3491FC01E05DFF4F2491FD
:10007000FC01E65DFF4FE491EE23B9F0332329F054
:100080003130A1F48AB58F778ABDF0E0EE0FFF1F03
:10009000EC5DFF4FA591B4918FB7611118C0F89432
:1000A000EC9120952E232C938FBF0895323019F4B4
:1000B0008AB58F7DE9CF333021F480B78F7D80BF43
:1000C000E4CF343011F78CB58F7D8CBDDECFF89442
:1000D000EC912E2BE8CFCF93DF9390E0FC01E05D15
:1000E000FF4F2491865D9F4FFC0184918823D1F0BE
:1000F00090E0880F991FFC01E25EFF4FA591B4913B
:10010000FC01EC5DFF4FC591D491623071F49FB753
:10011000F8943C91822F809583238C93E8812E2B39
:1001200028839FBFDF91CF9108958FB7F894EC910A
:100130002E2B2C938FBFF6CF1F920F920FB60F92DC
:1001400011240F900FBE0F901F90189583E08ABD69
:10015000C2E0C3BF789480E48CBD8FEF8DBD84EC8A
:1001600080BF80E886B961E080E0B5DF61E081E0D2
:10017000B2DF61E084E0AFDF62E082E0ACDF62E04A
:1001800083E0A9DF60E084E06ADF60E080E067DFB1
:1001900060E081E064DF37981ABC13BE87E083BF5C
:1001A00084B7877F84BF81B5886181BDC1BD81B5BA
:1001B000806481BDC1E082B78C3308F44AC082B745
:1001C0008B3508F046C01092640010926300809155
:1001D00061009091620001969093620080936100AB
:1001E00012BE2091610030916200809160002C3439
:1001F00031050CF43CC081113AC0C09360001092EC
:100200006200109261008091600061E0813009F02D
:100210003FC080E024DF85ED8A95F1F7000060E0C3
:1002200080E01DDF61E084E01ADF85B7877E85BF4F
:1002300085B7806285BF85B7806285BF889585B7A1
:100240008F7D85BF85B78F7D85BF80B5807F80BD61
:10025000B2CF109262001092610080916300909181
:10026000640001969093640080936300B9CF20915D
:100270006300309164002C3431052CF2813009F098
:10028000C2CF109260001092640010926300BBCF46
:1002900081E0E5DE85ED8A95F1F7000060E081E020
:0A02A000DEDE60E0C0CFF894FFCF6F
:00000001FF
